{
  "transactions": [
    {
      "hash": "0xda446c4a103dce0caa56b0f31ee90bf7e7e0d8d156e75d082f5c6ed11c8e1366",
      "transactionType": "CALL",
      "contractName": null,
      "contractAddress": "0x41007c72d52d5389a135e993af1d6a02761595be",
      "function": "approve(address,uint256)",
      "arguments": [
        "0x36bE7bD5550DD5A1B56f8D34Cf3A20b2E2E657C0",
        "50000000000000000000"
      ],
      "transaction": {
        "from": "0x081691e61060b24d3e828fce6a451706691f2820",
        "to": "0x41007c72d52d5389a135e993af1d6a02761595be",
        "gas": "0x107b8",
        "value": "0x0",
        "input": "0x095ea7b300000000000000000000000036be7bd5550dd5a1b56f8d34cf3a20b2e2e657c0000000000000000000000000000000000000000000000002b5e3af16b1880000",
        "nonce": "0x4",
        "chainId": "0x15eb"
      },
      "additionalContracts": [],
      "isFixedGasLimit": false
    },
    {
      "hash": "0x2da5efa4f508363df8119a2388fa995831a4444781ed34c903404bde6f31e593",
      "transactionType": "CALL",
      "contractName": null,
      "contractAddress": "0x944ec8cd3cda1d2abd311bd942421e7d5bd998f1",
      "function": "approve(address,uint256)",
      "arguments": [
        "0x36bE7bD5550DD5A1B56f8D34Cf3A20b2E2E657C0",
        "50000000000000000000"
      ],
      "transaction": {
        "from": "0x081691e61060b24d3e828fce6a451706691f2820",
        "to": "0x944ec8cd3cda1d2abd311bd942421e7d5bd998f1",
        "gas": "0x107b8",
        "value": "0x0",
        "input": "0x095ea7b300000000000000000000000036be7bd5550dd5a1b56f8d34cf3a20b2e2e657c0000000000000000000000000000000000000000000000002b5e3af16b1880000",
        "nonce": "0x5",
        "chainId": "0x15eb"
      },
      "additionalContracts": [],
      "isFixedGasLimit": false
    },
    {
      "hash": "0x951fcdd91e86be8003f92b74a87155aee42a58f543a390b4c8fadd298d129f11",
      "transactionType": "CALL",
      "contractName": null,
      "contractAddress": "0x36be7bd5550dd5a1b56f8d34cf3a20b2e2e657c0",
      "function": "addLiquidity(uint256,uint256)",
      "arguments": [
        "50",
        "50"
      ],
      "transaction": {
        "from": "0x081691e61060b24d3e828fce6a451706691f2820",
        "to": "0x36be7bd5550dd5a1b56f8d34cf3a20b2e2e657c0",
        "gas": "0x4277b",
        "value": "0x0",
        "input": "0x9cd441da00000000000000000000000000000000000000000000000000000000000000320000000000000000000000000000000000000000000000000000000000000032",
        "nonce": "0x6",
        "chainId": "0x15eb"
      },
      "additionalContracts": [],
      "isFixedGasLimit": false
    }
  ],
  "receipts": [
    {
      "status": "0x1",
      "cumulativeGasUsed": "0x15f92",
      "logs": [
        {
          "address": "0x41007c72d52d5389a135e993af1d6a02761595be",
          "topics": [
            "0x8c5be1e5ebec7d5bd14f71427d1e84f3dd0314c0f7b2291e5b200ac8c7c3b925",
            "0x000000000000000000000000081691e61060b24d3e828fce6a451706691f2820",
            "0x00000000000000000000000036be7bd5550dd5a1b56f8d34cf3a20b2e2e657c0"
          ],
          "data": "0x000000000000000000000000000000000000000000000002b5e3af16b1880000",
          "blockHash": "0x9b5a694d58edc642c1fe37ba9d2d109030a5a8bc43b1ceba5b6dee7c6dc00a95",
          "blockNumber": "0x2c95c57",
          "transactionHash": "0xda446c4a103dce0caa56b0f31ee90bf7e7e0d8d156e75d082f5c6ed11c8e1366",
          "transactionIndex": "0x1",
          "logIndex": "0x0",
          "removed": false
        }
      ],
      "logsBloom": "0x00000000000000000000000000000000000002000000000000000000000000000000000000000000000000000000000000000000000000000000000000200000000000000000000000000000000000000000000000000000040000000000000000000000000000000000000000000000000000000000000000000008000000000000000000000000000000040000000000000000000000008000000000000000020000000000000000000000000000000000000000000000000000800000000000000000000000000000000000000000000000000000020000000000000000000010000000000009000000000000000000000000000000000000000000000000",
      "type": "0x2",
      "transactionHash": "0xda446c4a103dce0caa56b0f31ee90bf7e7e0d8d156e75d082f5c6ed11c8e1366",
      "transactionIndex": "0x1",
      "blockHash": "0x9b5a694d58edc642c1fe37ba9d2d109030a5a8bc43b1ceba5b6dee7c6dc00a95",
      "blockNumber": "0x2c95c57",
      "gasUsed": "0xb453",
      "effectiveGasPrice": "0xf4240",
      "from": "0x081691e61060b24d3e828fce6a451706691f2820",
      "to": "0x41007c72d52d5389a135e993af1d6a02761595be",
      "contractAddress": null,
      "l1BaseFeeScalar": "0x109a0",
      "l1BlobBaseFee": "0x1",
      "l1BlobBaseFeeScalar": "0x9fe98",
      "l1Fee": "0x4bfef4c041",
      "l1GasPrice": "0xb2d05e00",
      "l1GasUsed": "0x640"
    },
    {
      "status": "0x1",
      "cumulativeGasUsed": "0x213e5",
      "logs": [
        {
          "address": "0x944ec8cd3cda1d2abd311bd942421e7d5bd998f1",
          "topics": [
            "0x8c5be1e5ebec7d5bd14f71427d1e84f3dd0314c0f7b2291e5b200ac8c7c3b925",
            "0x000000000000000000000000081691e61060b24d3e828fce6a451706691f2820",
            "0x00000000000000000000000036be7bd5550dd5a1b56f8d34cf3a20b2e2e657c0"
          ],
          "data": "0x000000000000000000000000000000000000000000000002b5e3af16b1880000",
          "blockHash": "0x9b5a694d58edc642c1fe37ba9d2d109030a5a8bc43b1ceba5b6dee7c6dc00a95",
          "blockNumber": "0x2c95c57",
          "transactionHash": "0x2da5efa4f508363df8119a2388fa995831a4444781ed34c903404bde6f31e593",
          "transactionIndex": "0x2",
          "logIndex": "0x1",
          "removed": false
        }
      ],
      "logsBloom": "0x00000000000000000000000000000000000002000000000000000000000000000000000000000000000000000000000000000000000000000000000000200000000000000000000000000000000000000000000000000000000000000000000000000000000000000000000000010000000000000000000000000000000000000000000400000000000000040000000000000000000000008000000000000000020000000000000000000000000200000000000000000000000000800000000000000000000000000000000000000000000000000000000000000000000000000010000000000009000000000000000000000000000000000000000000000000",
      "type": "0x2",
      "transactionHash": "0x2da5efa4f508363df8119a2388fa995831a4444781ed34c903404bde6f31e593",
      "transactionIndex": "0x2",
      "blockHash": "0x9b5a694d58edc642c1fe37ba9d2d109030a5a8bc43b1ceba5b6dee7c6dc00a95",
      "blockNumber": "0x2c95c57",
      "gasUsed": "0xb453",
      "effectiveGasPrice": "0xf4240",
      "from": "0x081691e61060b24d3e828fce6a451706691f2820",
      "to": "0x944ec8cd3cda1d2abd311bd942421e7d5bd998f1",
      "contractAddress": null,
      "l1BaseFeeScalar": "0x109a0",
      "l1BlobBaseFee": "0x1",
      "l1BlobBaseFeeScalar": "0x9fe98",
      "l1Fee": "0x4bfef4c041",
      "l1GasPrice": "0xb2d05e00",
      "l1GasUsed": "0x640"
    },
    {
      "status": "0x1",
      "cumulativeGasUsed": "0x3826a",
      "logs": [
        {
          "address": "0x41007c72d52d5389a135e993af1d6a02761595be",
          "topics": [
            "0xddf252ad1be2c89b69c2b068fc378daa952ba7f163c4a11628f55a4df523b3ef",
            "0x000000000000000000000000081691e61060b24d3e828fce6a451706691f2820",
            "0x00000000000000000000000036be7bd5550dd5a1b56f8d34cf3a20b2e2e657c0"
          ],
          "data": "0x000000000000000000000000000000000000000000000002b5e3af16b1880000",
          "blockHash": "0x94fa1724ca3952502d6e811f271946a437026cf57c57d8c5a94b9a83342d7c3b",
          "blockNumber": "0x2c95c58",
          "transactionHash": "0x951fcdd91e86be8003f92b74a87155aee42a58f543a390b4c8fadd298d129f11",
          "transactionIndex": "0x1",
          "logIndex": "0x0",
          "removed": false
        },
        {
          "address": "0x944ec8cd3cda1d2abd311bd942421e7d5bd998f1",
          "topics": [
            "0xddf252ad1be2c89b69c2b068fc378daa952ba7f163c4a11628f55a4df523b3ef",
            "0x000000000000000000000000081691e61060b24d3e828fce6a451706691f2820",
            "0x00000000000000000000000036be7bd5550dd5a1b56f8d34cf3a20b2e2e657c0"
          ],
          "data": "0x000000000000000000000000000000000000000000000002b5e3af16b1880000",
          "blockHash": "0x94fa1724ca3952502d6e811f271946a437026cf57c57d8c5a94b9a83342d7c3b",
          "blockNumber": "0x2c95c58",
          "transactionHash": "0x951fcdd91e86be8003f92b74a87155aee42a58f543a390b4c8fadd298d129f11",
          "transactionIndex": "0x1",
          "logIndex": "0x1",
          "removed": false
        },
        {
          "address": "0x36be7bd5550dd5a1b56f8d34cf3a20b2e2e657c0",
          "topics": [
            "0xddf252ad1be2c89b69c2b068fc378daa952ba7f163c4a11628f55a4df523b3ef",
            "0x0000000000000000000000000000000000000000000000000000000000000000",
            "0x000000000000000000000000081691e61060b24d3e828fce6a451706691f2820"
          ],
          "data": "0x0000000000000000000000000000000000000000000000056bc75e2d63100000",
          "blockHash": "0x94fa1724ca3952502d6e811f271946a437026cf57c57d8c5a94b9a83342d7c3b",
          "blockNumber": "0x2c95c58",
          "transactionHash": "0x951fcdd91e86be8003f92b74a87155aee42a58f543a390b4c8fadd298d129f11",
          "transactionIndex": "0x1",
          "logIndex": "0x2",
          "removed": false
        },
        {
          "address": "0x36be7bd5550dd5a1b56f8d34cf3a20b2e2e657c0",
          "topics": [
            "0x64b83944e79c3ce8d4c297411de637c3e102d064677aac0c163976ebdcd6f50e",
            "0x000000000000000000000000081691e61060b24d3e828fce6a451706691f2820"
          ],
          "data": "0x000000000000000000000000000000000000000000000000000000000000003200000000000000000000000000000000000000000000000000000000000000320000000000000000000000000000000000000000000000000000000000000064",
          "blockHash": "0x94fa1724ca3952502d6e811f271946a437026cf57c57d8c5a94b9a83342d7c3b",
          "blockNumber": "0x2c95c58",
          "transactionHash": "0x951fcdd91e86be8003f92b74a87155aee42a58f543a390b4c8fadd298d129f11",
          "transactionIndex": "0x1",
          "logIndex": "0x3",
          "removed": false
        }
      ],
      "logsBloom": "0x00000000000000000000000200000000000002000000000000000000000000000000000000000000000000000000000000000000000000000000000000000000000001000000000000000008800000000000000000000010040000000000000000000000020000000000000000010800000000000000000000000018000000000000000400000000000000040000000000000000000000008000000000000000000000000000000000000000000200000000000000000000000000800000000000000002000000000000000000000000000000000000020000000000020020000000000000000009000000000000000000000000000000004000000000000000",
      "type": "0x2",
      "transactionHash": "0x951fcdd91e86be8003f92b74a87155aee42a58f543a390b4c8fadd298d129f11",
      "transactionIndex": "0x1",
      "blockHash": "0x94fa1724ca3952502d6e811f271946a437026cf57c57d8c5a94b9a83342d7c3b",
      "blockNumber": "0x2c95c58",
      "gasUsed": "0x2d72b",
      "effectiveGasPrice": "0xf4240",
      "from": "0x081691e61060b24d3e828fce6a451706691f2820",
      "to": "0x36be7bd5550dd5a1b56f8d34cf3a20b2e2e657c0",
      "contractAddress": null,
      "l1BaseFeeScalar": "0x109a0",
      "l1BlobBaseFee": "0x1",
      "l1BlobBaseFeeScalar": "0x9fe98",
      "l1Fee": "0x4bfef4c041",
      "l1GasPrice": "0xb2d05e00",
      "l1GasUsed": "0x640"
    }
  ],
  "libraries": [],
  "pending": [],
  "returns": {},
  "timestamp": 1733629314,
  "chain": 5611,
  "commit": "accdc3b"
}