{
  "transactions": [
    {
      "hash": "0x986f2cb6c1c2ac4e4d0e54b5237e1e5ac159363093318757a1e2d56e49880815",
      "transactionType": "CALL",
      "contractName": null,
      "contractAddress": "0x73e8e00646e7de7f135aae385a2102fd1637d59e",
      "function": "approve(address,uint256)",
      "arguments": [
        "0xe71EAE89Dd7B325d5998C82D48d71Ff7A4c8E322",
        "50000000000000000000"
      ],
      "transaction": {
        "from": "0x081691e61060b24d3e828fce6a451706691f2820",
        "to": "0x73e8e00646e7de7f135aae385a2102fd1637d59e",
        "gas": "0x107b8",
        "value": "0x0",
        "input": "0x095ea7b3000000000000000000000000e71eae89dd7b325d5998c82d48d71ff7a4c8e322000000000000000000000000000000000000000000000002b5e3af16b1880000",
        "nonce": "0x8",
        "chainId": "0x13fb"
      },
      "additionalContracts": [],
      "isFixedGasLimit": false
    },
    {
      "hash": "0x0f6060b7410054622bc8da381258c401924299505113245b559472c37d50f38c",
      "transactionType": "CALL",
      "contractName": null,
      "contractAddress": "0x58ccf12593d608d871ef447d3fec9d00f35e14e2",
      "function": "approve(address,uint256)",
      "arguments": [
        "0xe71EAE89Dd7B325d5998C82D48d71Ff7A4c8E322",
        "50000000000000000000"
      ],
      "transaction": {
        "from": "0x081691e61060b24d3e828fce6a451706691f2820",
        "to": "0x58ccf12593d608d871ef447d3fec9d00f35e14e2",
        "gas": "0x107b8",
        "value": "0x0",
        "input": "0x095ea7b3000000000000000000000000e71eae89dd7b325d5998c82d48d71ff7a4c8e322000000000000000000000000000000000000000000000002b5e3af16b1880000",
        "nonce": "0x9",
        "chainId": "0x13fb"
      },
      "additionalContracts": [],
      "isFixedGasLimit": false
    },
    {
      "hash": "0x4cf90c57a11356cff9a2e0d80a77e7a5570e248a230fd30460473b3b9d4564f7",
      "transactionType": "CALL",
      "contractName": null,
      "contractAddress": "0xe71eae89dd7b325d5998c82d48d71ff7a4c8e322",
      "function": "addLiquidity(uint256,uint256)",
      "arguments": [
        "50",
        "50"
      ],
      "transaction": {
        "from": "0x081691e61060b24d3e828fce6a451706691f2820",
        "to": "0xe71eae89dd7b325d5998c82d48d71ff7a4c8e322",
        "gas": "0x4277b",
        "value": "0x0",
        "input": "0x9cd441da00000000000000000000000000000000000000000000000000000000000000320000000000000000000000000000000000000000000000000000000000000032",
        "nonce": "0xa",
        "chainId": "0x13fb"
      },
      "additionalContracts": [],
      "isFixedGasLimit": false
    }
  ],
  "receipts": [
    {
      "status": "0x1",
      "cumulativeGasUsed": "0xb453",
      "logs": [
        {
          "address": "0x73e8e00646e7de7f135aae385a2102fd1637d59e",
          "topics": [
            "0x8c5be1e5ebec7d5bd14f71427d1e84f3dd0314c0f7b2291e5b200ac8c7c3b925",
            "0x000000000000000000000000081691e61060b24d3e828fce6a451706691f2820",
            "0x000000000000000000000000e71eae89dd7b325d5998c82d48d71ff7a4c8e322"
          ],
          "data": "0x000000000000000000000000000000000000000000000002b5e3af16b1880000",
          "blockHash": "0xa83991bf061c59b899c8aec94f0bf5b048a4564f2ce22b62934ea4d30f494e78",
          "blockNumber": "0x356ce6",
          "blockTimestamp": "0x6754f0c8",
          "transactionHash": "0x986f2cb6c1c2ac4e4d0e54b5237e1e5ac159363093318757a1e2d56e49880815",
          "transactionIndex": "0x0",
          "logIndex": "0x0",
          "removed": false
        }
      ],
      "logsBloom": "0x00000000000000000000000000000000000002000000000000000000000000000000000001000000000000000000000000000000000000000000000000200000000000000000000000000000000000000000000000000000000000000000000000000000000000000000000000000000000000000000000000000000000000000000001000000000000000000000000000008000000000000000000000000000020000000008000000000000000000000000000000000000000000820000000000000000000000000000000200000000000000000000000000000000000000000010000000000008000000000000000000000000000000000000000000000000",
      "type": "0x2",
      "transactionHash": "0x986f2cb6c1c2ac4e4d0e54b5237e1e5ac159363093318757a1e2d56e49880815",
      "transactionIndex": "0x0",
      "blockHash": "0xa83991bf061c59b899c8aec94f0bf5b048a4564f2ce22b62934ea4d30f494e78",
      "blockNumber": "0x356ce6",
      "gasUsed": "0xb453",
      "effectiveGasPrice": "0x989681",
      "from": "0x081691e61060b24d3e828fce6a451706691f2820",
      "to": "0x73e8e00646e7de7f135aae385a2102fd1637d59e",
      "contractAddress": null,
      "l1DiffSize": "0xff",
      "l1FeeRate": "0x9502f900"
    },
    {
      "status": "0x1",
      "cumulativeGasUsed": "0x168a6",
      "logs": [
        {
          "address": "0x58ccf12593d608d871ef447d3fec9d00f35e14e2",
          "topics": [
            "0x8c5be1e5ebec7d5bd14f71427d1e84f3dd0314c0f7b2291e5b200ac8c7c3b925",
            "0x000000000000000000000000081691e61060b24d3e828fce6a451706691f2820",
            "0x000000000000000000000000e71eae89dd7b325d5998c82d48d71ff7a4c8e322"
          ],
          "data": "0x000000000000000000000000000000000000000000000002b5e3af16b1880000",
          "blockHash": "0xa83991bf061c59b899c8aec94f0bf5b048a4564f2ce22b62934ea4d30f494e78",
          "blockNumber": "0x356ce6",
          "blockTimestamp": "0x6754f0c8",
          "transactionHash": "0x0f6060b7410054622bc8da381258c401924299505113245b559472c37d50f38c",
          "transactionIndex": "0x1",
          "logIndex": "0x1",
          "removed": false
        }
      ],
      "logsBloom": "0x00000000000000000000000000000000000002000000000000000000000000000000000000000000000000000000000000000000000000000000000000200000000000000000000000000000000000000000000000000000000000000000000000000000000000000000000000000000000000000000000000000000000000000004001000000000000000000000000000008000000000000000004000000000020000000008000000000000000000000000000000000000000000800000000000000000000000000000000000000000000000000000000000000000000000000010000000000008000000000000000000000000000000000080000000000000",
      "type": "0x2",
      "transactionHash": "0x0f6060b7410054622bc8da381258c401924299505113245b559472c37d50f38c",
      "transactionIndex": "0x1",
      "blockHash": "0xa83991bf061c59b899c8aec94f0bf5b048a4564f2ce22b62934ea4d30f494e78",
      "blockNumber": "0x356ce6",
      "gasUsed": "0xb453",
      "effectiveGasPrice": "0x989681",
      "from": "0x081691e61060b24d3e828fce6a451706691f2820",
      "to": "0x58ccf12593d608d871ef447d3fec9d00f35e14e2",
      "contractAddress": null,
      "l1DiffSize": "0xff",
      "l1FeeRate": "0x9502f900"
    },
    {
      "status": "0x1",
      "cumulativeGasUsed": "0x43fd1",
      "logs": [
        {
          "address": "0x73e8e00646e7de7f135aae385a2102fd1637d59e",
          "topics": [
            "0xddf252ad1be2c89b69c2b068fc378daa952ba7f163c4a11628f55a4df523b3ef",
            "0x000000000000000000000000081691e61060b24d3e828fce6a451706691f2820",
            "0x000000000000000000000000e71eae89dd7b325d5998c82d48d71ff7a4c8e322"
          ],
          "data": "0x000000000000000000000000000000000000000000000002b5e3af16b1880000",
          "blockHash": "0xa83991bf061c59b899c8aec94f0bf5b048a4564f2ce22b62934ea4d30f494e78",
          "blockNumber": "0x356ce6",
          "blockTimestamp": "0x6754f0c8",
          "transactionHash": "0x4cf90c57a11356cff9a2e0d80a77e7a5570e248a230fd30460473b3b9d4564f7",
          "transactionIndex": "0x2",
          "logIndex": "0x2",
          "removed": false
        },
        {
          "address": "0x58ccf12593d608d871ef447d3fec9d00f35e14e2",
          "topics": [
            "0xddf252ad1be2c89b69c2b068fc378daa952ba7f163c4a11628f55a4df523b3ef",
            "0x000000000000000000000000081691e61060b24d3e828fce6a451706691f2820",
            "0x000000000000000000000000e71eae89dd7b325d5998c82d48d71ff7a4c8e322"
          ],
          "data": "0x000000000000000000000000000000000000000000000002b5e3af16b1880000",
          "blockHash": "0xa83991bf061c59b899c8aec94f0bf5b048a4564f2ce22b62934ea4d30f494e78",
          "blockNumber": "0x356ce6",
          "blockTimestamp": "0x6754f0c8",
          "transactionHash": "0x4cf90c57a11356cff9a2e0d80a77e7a5570e248a230fd30460473b3b9d4564f7",
          "transactionIndex": "0x2",
          "logIndex": "0x3",
          "removed": false
        },
        {
          "address": "0xe71eae89dd7b325d5998c82d48d71ff7a4c8e322",
          "topics": [
            "0xddf252ad1be2c89b69c2b068fc378daa952ba7f163c4a11628f55a4df523b3ef",
            "0x0000000000000000000000000000000000000000000000000000000000000000",
            "0x000000000000000000000000081691e61060b24d3e828fce6a451706691f2820"
          ],
          "data": "0x0000000000000000000000000000000000000000000000056bc75e2d63100000",
          "blockHash": "0xa83991bf061c59b899c8aec94f0bf5b048a4564f2ce22b62934ea4d30f494e78",
          "blockNumber": "0x356ce6",
          "blockTimestamp": "0x6754f0c8",
          "transactionHash": "0x4cf90c57a11356cff9a2e0d80a77e7a5570e248a230fd30460473b3b9d4564f7",
          "transactionIndex": "0x2",
          "logIndex": "0x4",
          "removed": false
        },
        {
          "address": "0xe71eae89dd7b325d5998c82d48d71ff7a4c8e322",
          "topics": [
            "0x64b83944e79c3ce8d4c297411de637c3e102d064677aac0c163976ebdcd6f50e",
            "0x000000000000000000000000081691e61060b24d3e828fce6a451706691f2820"
          ],
          "data": "0x000000000000000000000000000000000000000000000000000000000000003200000000000000000000000000000000000000000000000000000000000000320000000000000000000000000000000000000000000000000000000000000064",
          "blockHash": "0xa83991bf061c59b899c8aec94f0bf5b048a4564f2ce22b62934ea4d30f494e78",
          "blockNumber": "0x356ce6",
          "blockTimestamp": "0x6754f0c8",
          "transactionHash": "0x4cf90c57a11356cff9a2e0d80a77e7a5570e248a230fd30460473b3b9d4564f7",
          "transactionIndex": "0x2",
          "logIndex": "0x5",
          "removed": false
        }
      ],
      "logsBloom": "0x00000000000000000000000000000000000002000000000000000000000000000000000001000000000000000000000000000000000000000000000000000000000001000000000000000008800000000000000000000000000000000000000000000000020000000000000000000800000000000000000000000010000008000004001000000000000000800000000000008000000000000000004000000000000000000008000000000000000000000000000000000000000000820000000000000002000200000000000200000000000000000000000000000000020020000000000000000008000000000000000000000000000000000080000000000000",
      "type": "0x2",
      "transactionHash": "0x4cf90c57a11356cff9a2e0d80a77e7a5570e248a230fd30460473b3b9d4564f7",
      "transactionIndex": "0x2",
      "blockHash": "0xa83991bf061c59b899c8aec94f0bf5b048a4564f2ce22b62934ea4d30f494e78",
      "blockNumber": "0x356ce6",
      "gasUsed": "0x2d72b",
      "effectiveGasPrice": "0x989681",
      "from": "0x081691e61060b24d3e828fce6a451706691f2820",
      "to": "0xe71eae89dd7b325d5998c82d48d71ff7a4c8e322",
      "contractAddress": null,
      "l1DiffSize": "0x49a",
      "l1FeeRate": "0x9502f900"
    }
  ],
  "libraries": [],
  "pending": [],
  "returns": {},
  "timestamp": 1733619914,
  "chain": 5115,
  "commit": "accdc3b"
}