{
  "transactions": [
    {
      "hash": "0x0e6df8e2dce397d4a9d6818de1ac4315e0bd93937be7d22af1690f967930adf3",
      "transactionType": "CALL",
      "contractName": null,
      "contractAddress": "0x53d15c8369a17f163c28c8a51c2feea4ac30a379",
      "function": "approve(address,uint256)",
      "arguments": [
        "0x28C62F8404C003853f633767c43acF4529aeD48A",
        "50000000000000000000"
      ],
      "transaction": {
        "from": "0x081691e61060b24d3e828fce6a451706691f2820",
        "to": "0x53d15c8369a17f163c28c8a51c2feea4ac30a379",
        "gas": "0x107b8",
        "value": "0x0",
        "input": "0x095ea7b300000000000000000000000028c62f8404c003853f633767c43acf4529aed48a000000000000000000000000000000000000000000000002b5e3af16b1880000",
        "nonce": "0x4a",
        "chainId": "0x14a34"
      },
      "additionalContracts": [],
      "isFixedGasLimit": false
    },
    {
      "hash": "0x4b4f327e2e4d793e59f907de7c921427bed9904c6222c51761c8a82df9a68671",
      "transactionType": "CALL",
      "contractName": null,
      "contractAddress": "0xa9bbb36cd26bcbe034e1c4e0619bfa6f0eec48c2",
      "function": "approve(address,uint256)",
      "arguments": [
        "0x28C62F8404C003853f633767c43acF4529aeD48A",
        "50000000000000000000"
      ],
      "transaction": {
        "from": "0x081691e61060b24d3e828fce6a451706691f2820",
        "to": "0xa9bbb36cd26bcbe034e1c4e0619bfa6f0eec48c2",
        "gas": "0x107b8",
        "value": "0x0",
        "input": "0x095ea7b300000000000000000000000028c62f8404c003853f633767c43acf4529aed48a000000000000000000000000000000000000000000000002b5e3af16b1880000",
        "nonce": "0x4b",
        "chainId": "0x14a34"
      },
      "additionalContracts": [],
      "isFixedGasLimit": false
    },
    {
      "hash": "0x5050e580e17e40e378f1d3984b9d8fa8168551c1a681344a928fd40b52d22e8f",
      "transactionType": "CALL",
      "contractName": null,
      "contractAddress": "0x28c62f8404c003853f633767c43acf4529aed48a",
      "function": "addLiquidity(uint256,uint256)",
      "arguments": [
        "50",
        "50"
      ],
      "transaction": {
        "from": "0x081691e61060b24d3e828fce6a451706691f2820",
        "to": "0x28c62f8404c003853f633767c43acf4529aed48a",
        "gas": "0x4277b",
        "value": "0x0",
        "input": "0x9cd441da00000000000000000000000000000000000000000000000000000000000000320000000000000000000000000000000000000000000000000000000000000032",
        "nonce": "0x4c",
        "chainId": "0x14a34"
      },
      "additionalContracts": [],
      "isFixedGasLimit": false
    }
  ],
  "receipts": [
    {
      "status": "0x1",
      "cumulativeGasUsed": "0x3027b0",
      "logs": [
        {
          "address": "0x53d15c8369a17f163c28c8a51c2feea4ac30a379",
          "topics": [
            "0x8c5be1e5ebec7d5bd14f71427d1e84f3dd0314c0f7b2291e5b200ac8c7c3b925",
            "0x000000000000000000000000081691e61060b24d3e828fce6a451706691f2820",
            "0x00000000000000000000000028c62f8404c003853f633767c43acf4529aed48a"
          ],
          "data": "0x000000000000000000000000000000000000000000000002b5e3af16b1880000",
          "blockHash": "0x4a11897b08174b9700aa7a89d44ff5b3eeb4510307178e556397f47a2805d882",
          "blockNumber": "0x120c529",
          "blockTimestamp": "0x6754e932",
          "transactionHash": "0x0e6df8e2dce397d4a9d6818de1ac4315e0bd93937be7d22af1690f967930adf3",
          "transactionIndex": "0x9",
          "logIndex": "0xf",
          "removed": false
        }
      ],
      "logsBloom": "0x00000000000200000000400000000000000002000000000000000000000000000000000000000000000000000000000000000000000000000000000000200000000000000000000000000000000000000000000000000200000000000000000000000000000000000000000000000000000000000000000000000000000000000000000000000000000000000000000000000000000000000000000000000000030000000000000000000000000000000000000000000000000000800000000000000000000000000000000000000000000000000000000000008000000000800010000000000008000000000000000000000000000000000000000000000000",
      "type": "0x2",
      "transactionHash": "0x0e6df8e2dce397d4a9d6818de1ac4315e0bd93937be7d22af1690f967930adf3",
      "transactionIndex": "0x9",
      "blockHash": "0x4a11897b08174b9700aa7a89d44ff5b3eeb4510307178e556397f47a2805d882",
      "blockNumber": "0x120c529",
      "gasUsed": "0xb453",
      "effectiveGasPrice": "0x982",
      "from": "0x081691e61060b24d3e828fce6a451706691f2820",
      "to": "0x53d15c8369a17f163c28c8a51c2feea4ac30a379",
      "contractAddress": null,
      "l1BaseFeeScalar": "0x44d",
      "l1BlobBaseFee": "0x3",
      "l1BlobBaseFeeScalar": "0xa118b",
      "l1Fee": "0x27",
      "l1FeeScalar": "0.001101",
      "l1GasPrice": "0xf",
      "l1GasUsed": "0x964"
    },
    {
      "status": "0x1",
      "cumulativeGasUsed": "0x30dc03",
      "logs": [
        {
          "address": "0xa9bbb36cd26bcbe034e1c4e0619bfa6f0eec48c2",
          "topics": [
            "0x8c5be1e5ebec7d5bd14f71427d1e84f3dd0314c0f7b2291e5b200ac8c7c3b925",
            "0x000000000000000000000000081691e61060b24d3e828fce6a451706691f2820",
            "0x00000000000000000000000028c62f8404c003853f633767c43acf4529aed48a"
          ],
          "data": "0x000000000000000000000000000000000000000000000002b5e3af16b1880000",
          "blockHash": "0x4a11897b08174b9700aa7a89d44ff5b3eeb4510307178e556397f47a2805d882",
          "blockNumber": "0x120c529",
          "blockTimestamp": "0x6754e932",
          "transactionHash": "0x4b4f327e2e4d793e59f907de7c921427bed9904c6222c51761c8a82df9a68671",
          "transactionIndex": "0xa",
          "logIndex": "0x10",
          "removed": false
        }
      ],
      "logsBloom": "0x00000000000200000000400000000000000002000002000000000000000000000000000000000000000000000000000000000000000000000000000000200000000000000000000000000000200000000000000000000200000000000000000000000000000000000000000000000000000000000000000000000000000000000000000000000000000000000000000000000000000000000000000000000000020000000000000000000000000000000000000000000000000000800000000000000000400000000000000000000000000000000000000000000000000000000010000000000008000000000000000000000000000000000000000000000000",
      "type": "0x2",
      "transactionHash": "0x4b4f327e2e4d793e59f907de7c921427bed9904c6222c51761c8a82df9a68671",
      "transactionIndex": "0xa",
      "blockHash": "0x4a11897b08174b9700aa7a89d44ff5b3eeb4510307178e556397f47a2805d882",
      "blockNumber": "0x120c529",
      "gasUsed": "0xb453",
      "effectiveGasPrice": "0x982",
      "from": "0x081691e61060b24d3e828fce6a451706691f2820",
      "to": "0xa9bbb36cd26bcbe034e1c4e0619bfa6f0eec48c2",
      "contractAddress": null,
      "l1BaseFeeScalar": "0x44d",
      "l1BlobBaseFee": "0x3",
      "l1BlobBaseFeeScalar": "0xa118b",
      "l1Fee": "0x27",
      "l1FeeScalar": "0.001101",
      "l1GasPrice": "0xf",
      "l1GasUsed": "0x958"
    },
    {
      "status": "0x1",
      "cumulativeGasUsed": "0x33b32e",
      "logs": [
        {
          "address": "0x53d15c8369a17f163c28c8a51c2feea4ac30a379",
          "topics": [
            "0xddf252ad1be2c89b69c2b068fc378daa952ba7f163c4a11628f55a4df523b3ef",
            "0x000000000000000000000000081691e61060b24d3e828fce6a451706691f2820",
            "0x00000000000000000000000028c62f8404c003853f633767c43acf4529aed48a"
          ],
          "data": "0x000000000000000000000000000000000000000000000002b5e3af16b1880000",
          "blockHash": "0x4a11897b08174b9700aa7a89d44ff5b3eeb4510307178e556397f47a2805d882",
          "blockNumber": "0x120c529",
          "blockTimestamp": "0x6754e932",
          "transactionHash": "0x5050e580e17e40e378f1d3984b9d8fa8168551c1a681344a928fd40b52d22e8f",
          "transactionIndex": "0xb",
          "logIndex": "0x11",
          "removed": false
        },
        {
          "address": "0xa9bbb36cd26bcbe034e1c4e0619bfa6f0eec48c2",
          "topics": [
            "0xddf252ad1be2c89b69c2b068fc378daa952ba7f163c4a11628f55a4df523b3ef",
            "0x000000000000000000000000081691e61060b24d3e828fce6a451706691f2820",
            "0x00000000000000000000000028c62f8404c003853f633767c43acf4529aed48a"
          ],
          "data": "0x000000000000000000000000000000000000000000000002b5e3af16b1880000",
          "blockHash": "0x4a11897b08174b9700aa7a89d44ff5b3eeb4510307178e556397f47a2805d882",
          "blockNumber": "0x120c529",
          "blockTimestamp": "0x6754e932",
          "transactionHash": "0x5050e580e17e40e378f1d3984b9d8fa8168551c1a681344a928fd40b52d22e8f",
          "transactionIndex": "0xb",
          "logIndex": "0x12",
          "removed": false
        },
        {
          "address": "0x28c62f8404c003853f633767c43acf4529aed48a",
          "topics": [
            "0xddf252ad1be2c89b69c2b068fc378daa952ba7f163c4a11628f55a4df523b3ef",
            "0x0000000000000000000000000000000000000000000000000000000000000000",
            "0x000000000000000000000000081691e61060b24d3e828fce6a451706691f2820"
          ],
          "data": "0x0000000000000000000000000000000000000000000000056bc75e2d63100000",
          "blockHash": "0x4a11897b08174b9700aa7a89d44ff5b3eeb4510307178e556397f47a2805d882",
          "blockNumber": "0x120c529",
          "blockTimestamp": "0x6754e932",
          "transactionHash": "0x5050e580e17e40e378f1d3984b9d8fa8168551c1a681344a928fd40b52d22e8f",
          "transactionIndex": "0xb",
          "logIndex": "0x13",
          "removed": false
        },
        {
          "address": "0x28c62f8404c003853f633767c43acf4529aed48a",
          "topics": [
            "0x64b83944e79c3ce8d4c297411de637c3e102d064677aac0c163976ebdcd6f50e",
            "0x000000000000000000000000081691e61060b24d3e828fce6a451706691f2820"
          ],
          "data": "0x000000000000000000000000000000000000000000000000000000000000003200000000000000000000000000000000000000000000000000000000000000320000000000000000000000000000000000000000000000000000000000000064",
          "blockHash": "0x4a11897b08174b9700aa7a89d44ff5b3eeb4510307178e556397f47a2805d882",
          "blockNumber": "0x120c529",
          "blockTimestamp": "0x6754e932",
          "transactionHash": "0x5050e580e17e40e378f1d3984b9d8fa8168551c1a681344a928fd40b52d22e8f",
          "transactionIndex": "0xb",
          "logIndex": "0x14",
          "removed": false
        }
      ],
      "logsBloom": "0x00000002000200000000400000000000000002000002000000000000000000000000000000000000000000000000000000000000000000000000000000000000000001000080000000000008a00000000000000000000200000000000000000000000000020000000000000000000800000000000000000000000010000000000000000000000000000000000000000000000000000000000000000000000000010000000000000000000000000000000000000000000000000000800000000000000002400000000000000000000000000000000000000000008000020020800000000000000008000000000000004000000000000000000000000000000000",
      "type": "0x2",
      "transactionHash": "0x5050e580e17e40e378f1d3984b9d8fa8168551c1a681344a928fd40b52d22e8f",
      "transactionIndex": "0xb",
      "blockHash": "0x4a11897b08174b9700aa7a89d44ff5b3eeb4510307178e556397f47a2805d882",
      "blockNumber": "0x120c529",
      "gasUsed": "0x2d72b",
      "effectiveGasPrice": "0x982",
      "from": "0x081691e61060b24d3e828fce6a451706691f2820",
      "to": "0x28c62f8404c003853f633767c43acf4529aed48a",
      "contractAddress": null,
      "l1BaseFeeScalar": "0x44d",
      "l1BlobBaseFee": "0x3",
      "l1BlobBaseFeeScalar": "0xa118b",
      "l1Fee": "0x22",
      "l1FeeScalar": "0.001101",
      "l1GasPrice": "0xf",
      "l1GasUsed": "0x838"
    }
  ],
  "libraries": [],
  "pending": [],
  "returns": {},
  "timestamp": 1733617971,
  "chain": 84532,
  "commit": "accdc3b"
}