{
  "transactions": [
    {
      "hash": "0x5f097433fb3c49abf4bd232d6addddbef5e7dace1c08f6feb6da43926f9b0738",
      "transactionType": "CALL",
      "contractName": null,
      "contractAddress": "0x9779cfa3f75c99ca222e9dcb283d1372491e3b3c",
      "function": "approve(address,uint256)",
      "arguments": [
        "0xa18eC0d01294f4da03216DEdbf1c5D4830e290B1",
        "50000000000000000000"
      ],
      "transaction": {
        "from": "0x081691e61060b24d3e828fce6a451706691f2820",
        "to": "0x9779cfa3f75c99ca222e9dcb283d1372491e3b3c",
        "gas": "0x9cce",
        "value": "0x0",
        "input": "0x095ea7b3000000000000000000000000a18ec0d01294f4da03216dedbf1c5d4830e290b1000000000000000000000000000000000000000000000002b5e3af16b1880000",
        "nonce": "0x40",
        "chainId": "0x14a34"
      },
      "additionalContracts": [],
      "isFixedGasLimit": false
    },
    {
      "hash": "0xe8d84073d5b1e66051b2d1ad0449e8152d2fe9d59ae7331e9242cd61ace51855",
      "transactionType": "CALL",
      "contractName": null,
      "contractAddress": "0x0b61f09729b4840bbb03b1cd234a882322addd42",
      "function": "approve(address,uint256)",
      "arguments": [
        "0xa18eC0d01294f4da03216DEdbf1c5D4830e290B1",
        "50000000000000000000"
      ],
      "transaction": {
        "from": "0x081691e61060b24d3e828fce6a451706691f2820",
        "to": "0x0b61f09729b4840bbb03b1cd234a882322addd42",
        "gas": "0x9cce",
        "value": "0x0",
        "input": "0x095ea7b3000000000000000000000000a18ec0d01294f4da03216dedbf1c5d4830e290b1000000000000000000000000000000000000000000000002b5e3af16b1880000",
        "nonce": "0x41",
        "chainId": "0x14a34"
      },
      "additionalContracts": [],
      "isFixedGasLimit": false
    },
    {
      "hash": "0x9588fa9b76d9bf1606ec62df388525299964aab18978c4e7ccdd6e3c8976b1a1",
      "transactionType": "CALL",
      "contractName": null,
      "contractAddress": "0xa18ec0d01294f4da03216dedbf1c5d4830e290b1",
      "function": "addLiquidity(uint256,uint256)",
      "arguments": [
        "50",
        "50"
      ],
      "transaction": {
        "from": "0x081691e61060b24d3e828fce6a451706691f2820",
        "to": "0xa18ec0d01294f4da03216dedbf1c5d4830e290b1",
        "gas": "0x4277b",
        "value": "0x0",
        "input": "0x9cd441da00000000000000000000000000000000000000000000000000000000000000320000000000000000000000000000000000000000000000000000000000000032",
        "nonce": "0x42",
        "chainId": "0x14a34"
      },
      "additionalContracts": [],
      "isFixedGasLimit": false
    }
  ],
  "receipts": [
    {
      "status": "0x1",
      "cumulativeGasUsed": "0x1163f7",
      "logs": [
        {
          "address": "0x9779cfa3f75c99ca222e9dcb283d1372491e3b3c",
          "topics": [
            "0x8c5be1e5ebec7d5bd14f71427d1e84f3dd0314c0f7b2291e5b200ac8c7c3b925",
            "0x000000000000000000000000081691e61060b24d3e828fce6a451706691f2820",
            "0x000000000000000000000000a18ec0d01294f4da03216dedbf1c5d4830e290b1"
          ],
          "data": "0x000000000000000000000000000000000000000000000002b5e3af16b1880000",
          "blockHash": "0x9a6e2f24c20710799895da7cf0681af49c554eaf6c64ebea2aa78691f7381f88",
          "blockNumber": "0x1209799",
          "blockTimestamp": "0x67548e12",
          "transactionHash": "0x5f097433fb3c49abf4bd232d6addddbef5e7dace1c08f6feb6da43926f9b0738",
          "transactionIndex": "0xb",
          "logIndex": "0x18",
          "removed": false
        }
      ],
      "logsBloom": "0x00000000000001000000000000000000000002000000000000000000000000000000000000000000000000000000000000000000000000000000000000200000000000000000100000020000000080000000000000000000000000000000000000000000000000000001000000000000000000000000000000000000000000000000000000000000000000000000000000000000000000000000000000000000020000000000000000000000000000000000000000000000000000800000000000000000000000000000000000000000000000000000000080000000000000000010000000000008000000000000000000000000000000000000000000000000",
      "type": "0x2",
      "transactionHash": "0x5f097433fb3c49abf4bd232d6addddbef5e7dace1c08f6feb6da43926f9b0738",
      "transactionIndex": "0xb",
      "blockHash": "0x9a6e2f24c20710799895da7cf0681af49c554eaf6c64ebea2aa78691f7381f88",
      "blockNumber": "0x1209799",
      "gasUsed": "0x7187",
      "effectiveGasPrice": "0x357",
      "from": "0x081691e61060b24d3e828fce6a451706691f2820",
      "to": "0x9779cfa3f75c99ca222e9dcb283d1372491e3b3c",
      "contractAddress": null,
      "l1BaseFeeScalar": "0x44d",
      "l1BlobBaseFee": "0x1",
      "l1BlobBaseFeeScalar": "0xa118b",
      "l1Fee": "0x2e9be03",
      "l1FeeScalar": "0.001101",
      "l1GasPrice": "0x11ba3c7",
      "l1GasUsed": "0x954"
    },
    {
      "status": "0x1",
      "cumulativeGasUsed": "0x11d57e",
      "logs": [
        {
          "address": "0x0b61f09729b4840bbb03b1cd234a882322addd42",
          "topics": [
            "0x8c5be1e5ebec7d5bd14f71427d1e84f3dd0314c0f7b2291e5b200ac8c7c3b925",
            "0x000000000000000000000000081691e61060b24d3e828fce6a451706691f2820",
            "0x000000000000000000000000a18ec0d01294f4da03216dedbf1c5d4830e290b1"
          ],
          "data": "0x000000000000000000000000000000000000000000000002b5e3af16b1880000",
          "blockHash": "0x9a6e2f24c20710799895da7cf0681af49c554eaf6c64ebea2aa78691f7381f88",
          "blockNumber": "0x1209799",
          "blockTimestamp": "0x67548e12",
          "transactionHash": "0xe8d84073d5b1e66051b2d1ad0449e8152d2fe9d59ae7331e9242cd61ace51855",
          "transactionIndex": "0xc",
          "logIndex": "0x19",
          "removed": false
        }
      ],
      "logsBloom": "0x00000000000000000000000000000000000002000000000000000000000000000000000000000000000000000000000000000000000000000000000000200000000000000000100000020000000080000000000000000000000000000000000000000000000000000000000000000000000000000000000000000020000000000000000000000000000000000000001000000000000000000000000000000000020000000008000000000000000000000000000000000000000000800000000000000000000000000000000000000000000000000000000000000000000000000010000000000008000000000000000000000000000000000000000000000000",
      "type": "0x2",
      "transactionHash": "0xe8d84073d5b1e66051b2d1ad0449e8152d2fe9d59ae7331e9242cd61ace51855",
      "transactionIndex": "0xc",
      "blockHash": "0x9a6e2f24c20710799895da7cf0681af49c554eaf6c64ebea2aa78691f7381f88",
      "blockNumber": "0x1209799",
      "gasUsed": "0x7187",
      "effectiveGasPrice": "0x357",
      "from": "0x081691e61060b24d3e828fce6a451706691f2820",
      "to": "0x0b61f09729b4840bbb03b1cd234a882322addd42",
      "contractAddress": null,
      "l1BaseFeeScalar": "0x44d",
      "l1BlobBaseFee": "0x1",
      "l1BlobBaseFeeScalar": "0xa118b",
      "l1Fee": "0x2e9be03",
      "l1FeeScalar": "0.001101",
      "l1GasPrice": "0x11ba3c7",
      "l1GasUsed": "0x954"
    },
    {
      "status": "0x1",
      "cumulativeGasUsed": "0x14aca9",
      "logs": [
        {
          "address": "0x9779cfa3f75c99ca222e9dcb283d1372491e3b3c",
          "topics": [
            "0xddf252ad1be2c89b69c2b068fc378daa952ba7f163c4a11628f55a4df523b3ef",
            "0x000000000000000000000000081691e61060b24d3e828fce6a451706691f2820",
            "0x000000000000000000000000a18ec0d01294f4da03216dedbf1c5d4830e290b1"
          ],
          "data": "0x000000000000000000000000000000000000000000000002b5e3af16b1880000",
          "blockHash": "0x9a6e2f24c20710799895da7cf0681af49c554eaf6c64ebea2aa78691f7381f88",
          "blockNumber": "0x1209799",
          "blockTimestamp": "0x67548e12",
          "transactionHash": "0x9588fa9b76d9bf1606ec62df388525299964aab18978c4e7ccdd6e3c8976b1a1",
          "transactionIndex": "0xd",
          "logIndex": "0x1a",
          "removed": false
        },
        {
          "address": "0x0b61f09729b4840bbb03b1cd234a882322addd42",
          "topics": [
            "0xddf252ad1be2c89b69c2b068fc378daa952ba7f163c4a11628f55a4df523b3ef",
            "0x000000000000000000000000081691e61060b24d3e828fce6a451706691f2820",
            "0x000000000000000000000000a18ec0d01294f4da03216dedbf1c5d4830e290b1"
          ],
          "data": "0x000000000000000000000000000000000000000000000002b5e3af16b1880000",
          "blockHash": "0x9a6e2f24c20710799895da7cf0681af49c554eaf6c64ebea2aa78691f7381f88",
          "blockNumber": "0x1209799",
          "blockTimestamp": "0x67548e12",
          "transactionHash": "0x9588fa9b76d9bf1606ec62df388525299964aab18978c4e7ccdd6e3c8976b1a1",
          "transactionIndex": "0xd",
          "logIndex": "0x1b",
          "removed": false
        },
        {
          "address": "0xa18ec0d01294f4da03216dedbf1c5d4830e290b1",
          "topics": [
            "0xddf252ad1be2c89b69c2b068fc378daa952ba7f163c4a11628f55a4df523b3ef",
            "0x0000000000000000000000000000000000000000000000000000000000000000",
            "0x000000000000000000000000081691e61060b24d3e828fce6a451706691f2820"
          ],
          "data": "0x0000000000000000000000000000000000000000000000056bc75e2d63100000",
          "blockHash": "0x9a6e2f24c20710799895da7cf0681af49c554eaf6c64ebea2aa78691f7381f88",
          "blockNumber": "0x1209799",
          "blockTimestamp": "0x67548e12",
          "transactionHash": "0x9588fa9b76d9bf1606ec62df388525299964aab18978c4e7ccdd6e3c8976b1a1",
          "transactionIndex": "0xd",
          "logIndex": "0x1c",
          "removed": false
        },
        {
          "address": "0xa18ec0d01294f4da03216dedbf1c5d4830e290b1",
          "topics": [
            "0x64b83944e79c3ce8d4c297411de637c3e102d064677aac0c163976ebdcd6f50e",
            "0x000000000000000000000000081691e61060b24d3e828fce6a451706691f2820"
          ],
          "data": "0x000000000000000000000000000000000000000000000000000000000000003200000000000000000000000000000000000000000000000000000000000000320000000000000000000000000000000000000000000000000000000000000064",
          "blockHash": "0x9a6e2f24c20710799895da7cf0681af49c554eaf6c64ebea2aa78691f7381f88",
          "blockNumber": "0x1209799",
          "blockTimestamp": "0x67548e12",
          "transactionHash": "0x9588fa9b76d9bf1606ec62df388525299964aab18978c4e7ccdd6e3c8976b1a1",
          "transactionIndex": "0xd",
          "logIndex": "0x1d",
          "removed": false
        }
      ],
      "logsBloom": "0x00000000000001000000000000000000000002000000000000000000000000000000008000000000000000000000000000000000000000000000000000000000000001000000100000020008800080000000000000000000000000000000000000000000020000000001000000000800000000000000000000000030000000000000000000000000000000000000001000000000000000000000000000000000000000000008000000000000000000000000000000000000000000800000000000000002000000000000000000000000000000000000000080000000020020000000000000000008000000040000000000002000000000000000000000000000",
      "type": "0x2",
      "transactionHash": "0x9588fa9b76d9bf1606ec62df388525299964aab18978c4e7ccdd6e3c8976b1a1",
      "transactionIndex": "0xd",
      "blockHash": "0x9a6e2f24c20710799895da7cf0681af49c554eaf6c64ebea2aa78691f7381f88",
      "blockNumber": "0x1209799",
      "gasUsed": "0x2d72b",
      "effectiveGasPrice": "0x357",
      "from": "0x081691e61060b24d3e828fce6a451706691f2820",
      "to": "0xa18ec0d01294f4da03216dedbf1c5d4830e290b1",
      "contractAddress": null,
      "l1BaseFeeScalar": "0x44d",
      "l1BlobBaseFee": "0x1",
      "l1BlobBaseFeeScalar": "0xa118b",
      "l1Fee": "0x2910d79",
      "l1FeeScalar": "0.001101",
      "l1GasPrice": "0x11ba3c7",
      "l1GasUsed": "0x838"
    }
  ],
  "libraries": [],
  "pending": [],
  "returns": {},
  "timestamp": 1733594643,
  "chain": 84532,
  "commit": "accdc3b"
}