{
  "transactions": [
    {
      "hash": "0x644c180229993c349061275f619ff2d62047bad445114db986095bc7086ac58a",
      "transactionType": "CALL",
      "contractName": null,
      "contractAddress": "0xe71eae89dd7b325d5998c82d48d71ff7a4c8e322",
      "function": "approve(address,uint256)",
      "arguments": [
        "0xac77B823b58873572937a01b3E0CB9C417Cf637E",
        "10000000000000000000"
      ],
      "transaction": {
        "from": "0x081691e61060b24d3e828fce6a451706691f2820",
        "to": "0xe71eae89dd7b325d5998c82d48d71ff7a4c8e322",
        "gas": "0x10923",
        "value": "0x0",
        "input": "0x095ea7b3000000000000000000000000ac77b823b58873572937a01b3e0cb9c417cf637e0000000000000000000000000000000000000000000000008ac7230489e80000",
        "nonce": "0xc",
        "chainId": "0x13fb"
      },
      "additionalContracts": [],
      "isFixedGasLimit": false
    },
    {
      "hash": "0x61ba02842e05ee366f0debf5e31a34883eedbd2d34e305a67a02389d1c5383bb",
      "transactionType": "CALL",
      "contractName": null,
      "contractAddress": "0xac77b823b58873572937a01b3e0cb9c417cf637e",
      "function": "depositCollateral(uint256)",
      "arguments": [
        "10000000000000000000"
      ],
      "transaction": {
        "from": "0x081691e61060b24d3e828fce6a451706691f2820",
        "to": "0xac77b823b58873572937a01b3e0cb9c417cf637e",
        "gas": "0x1cfe6",
        "value": "0x0",
        "input": "0xbad4a01f0000000000000000000000000000000000000000000000008ac7230489e80000",
        "nonce": "0xd",
        "chainId": "0x13fb"
      },
      "additionalContracts": [],
      "isFixedGasLimit": false
    },
    {
      "hash": "0x1dd9de7367fe7ac25b6ce06b21b75a2aa31b4649055de4e6f16fa23d8e13b6bc",
      "transactionType": "CALL",
      "contractName": null,
      "contractAddress": "0xbe5d45a7c0709bab9e51337c991dabcb97c6d1ef",
      "function": "approve(address,uint256)",
      "arguments": [
        "0xac77B823b58873572937a01b3E0CB9C417Cf637E",
        "100000000"
      ],
      "transaction": {
        "from": "0x081691e61060b24d3e828fce6a451706691f2820",
        "to": "0xbe5d45a7c0709bab9e51337c991dabcb97c6d1ef",
        "gas": "0x10772",
        "value": "0x0",
        "input": "0x095ea7b3000000000000000000000000ac77b823b58873572937a01b3e0cb9c417cf637e0000000000000000000000000000000000000000000000000000000005f5e100",
        "nonce": "0xe",
        "chainId": "0x13fb"
      },
      "additionalContracts": [],
      "isFixedGasLimit": false
    },
    {
      "hash": "0xafd0dfcc6f4b7311a7f30f9729fb0188f2edfb4afae1fff30310cb06833951b4",
      "transactionType": "CALL",
      "contractName": null,
      "contractAddress": "0xac77b823b58873572937a01b3e0cb9c417cf637e",
      "function": "deposit(uint256)",
      "arguments": [
        "100000000"
      ],
      "transaction": {
        "from": "0x081691e61060b24d3e828fce6a451706691f2820",
        "to": "0xac77b823b58873572937a01b3e0cb9c417cf637e",
        "gas": "0x2a473",
        "value": "0x0",
        "input": "0xb6b55f250000000000000000000000000000000000000000000000000000000005f5e100",
        "nonce": "0xf",
        "chainId": "0x13fb"
      },
      "additionalContracts": [],
      "isFixedGasLimit": false
    }
  ],
  "receipts": [
    {
      "status": "0x1",
      "cumulativeGasUsed": "0x193a2",
      "logs": [
        {
          "address": "0xe71eae89dd7b325d5998c82d48d71ff7a4c8e322",
          "topics": [
            "0x8c5be1e5ebec7d5bd14f71427d1e84f3dd0314c0f7b2291e5b200ac8c7c3b925",
            "0x000000000000000000000000081691e61060b24d3e828fce6a451706691f2820",
            "0x000000000000000000000000ac77b823b58873572937a01b3e0cb9c417cf637e"
          ],
          "data": "0x0000000000000000000000000000000000000000000000008ac7230489e80000",
          "blockHash": "0xd89542c6a7a16f317fdde7a6915a05e82583dfa55cd953f0d5d61a6e423e621b",
          "blockNumber": "0x356d67",
          "blockTimestamp": "0x6754f1ca",
          "transactionHash": "0x644c180229993c349061275f619ff2d62047bad445114db986095bc7086ac58a",
          "transactionIndex": "0x1",
          "logIndex": "0x1",
          "removed": false
        }
      ],
      "logsBloom": "0x02000000000000000000000000000000000002000000000000000000000000000040000000000000000000000000000000000000000000000000000000200000000000000000000000000000000000000000000000000000000000000000000000000000000000000000000000000000000000000000000000000000000008000000080000000000000000800000000000000000000000000000000000000000020000000000000000000000000000000000000000000000000000800000000000000000000200000000000000000000000000000000000000000000000000000010000000000008000000000000000000000000000000000000000000000000",
      "type": "0x2",
      "transactionHash": "0x644c180229993c349061275f619ff2d62047bad445114db986095bc7086ac58a",
      "transactionIndex": "0x1",
      "blockHash": "0xd89542c6a7a16f317fdde7a6915a05e82583dfa55cd953f0d5d61a6e423e621b",
      "blockNumber": "0x356d67",
      "gasUsed": "0xb54b",
      "effectiveGasPrice": "0x989681",
      "from": "0x081691e61060b24d3e828fce6a451706691f2820",
      "to": "0xe71eae89dd7b325d5998c82d48d71ff7a4c8e322",
      "contractAddress": null,
      "l1DiffSize": "0xff",
      "l1FeeRate": "0x9502f900"
    },
    {
      "status": "0x1",
      "cumulativeGasUsed": "0x2d0d5",
      "logs": [
        {
          "address": "0xe71eae89dd7b325d5998c82d48d71ff7a4c8e322",
          "topics": [
            "0xddf252ad1be2c89b69c2b068fc378daa952ba7f163c4a11628f55a4df523b3ef",
            "0x000000000000000000000000081691e61060b24d3e828fce6a451706691f2820",
            "0x000000000000000000000000ac77b823b58873572937a01b3e0cb9c417cf637e"
          ],
          "data": "0x0000000000000000000000000000000000000000000000008ac7230489e80000",
          "blockHash": "0xd89542c6a7a16f317fdde7a6915a05e82583dfa55cd953f0d5d61a6e423e621b",
          "blockNumber": "0x356d67",
          "blockTimestamp": "0x6754f1ca",
          "transactionHash": "0x61ba02842e05ee366f0debf5e31a34883eedbd2d34e305a67a02389d1c5383bb",
          "transactionIndex": "0x2",
          "logIndex": "0x2",
          "removed": false
        },
        {
          "address": "0xac77b823b58873572937a01b3e0cb9c417cf637e",
          "topics": [
            "0xd7243f6f8212d5188fd054141cf6ea89cfc0d91facb8c3afe2f88a1358480142",
            "0x000000000000000000000000081691e61060b24d3e828fce6a451706691f2820"
          ],
          "data": "0x0000000000000000000000000000000000000000000000008ac7230489e80000",
          "blockHash": "0xd89542c6a7a16f317fdde7a6915a05e82583dfa55cd953f0d5d61a6e423e621b",
          "blockNumber": "0x356d67",
          "blockTimestamp": "0x6754f1ca",
          "transactionHash": "0x61ba02842e05ee366f0debf5e31a34883eedbd2d34e305a67a02389d1c5383bb",
          "transactionIndex": "0x2",
          "logIndex": "0x3",
          "removed": false
        }
      ],
      "logsBloom": "0x02000000000000000000000000000000000002000000000000000000000000000040000000000000000000000000000000000000000000000000000000000000000000000000000000000008000000000000000000000000000000000000000000000000000000000000000000000000000000000000000000000010000008000000080000000000000000800000000000000000000000000000000000000000000000000000000000000000000000000000000000000000000000800020000000000012000201000000000000000000000000000040008000000000000000000000200000000008000000000000000000000000000000000000000000000000",
      "type": "0x2",
      "transactionHash": "0x61ba02842e05ee366f0debf5e31a34883eedbd2d34e305a67a02389d1c5383bb",
      "transactionIndex": "0x2",
      "blockHash": "0xd89542c6a7a16f317fdde7a6915a05e82583dfa55cd953f0d5d61a6e423e621b",
      "blockNumber": "0x356d67",
      "gasUsed": "0x13d33",
      "effectiveGasPrice": "0x989681",
      "from": "0x081691e61060b24d3e828fce6a451706691f2820",
      "to": "0xac77b823b58873572937a01b3e0cb9c417cf637e",
      "contractAddress": null,
      "l1DiffSize": "0x2d0",
      "l1FeeRate": "0x9502f900"
    },
    {
      "status": "0x1",
      "cumulativeGasUsed": "0x49a2f",
      "logs": [
        {
          "address": "0xbe5d45a7c0709bab9e51337c991dabcb97c6d1ef",
          "topics": [
            "0x8c5be1e5ebec7d5bd14f71427d1e84f3dd0314c0f7b2291e5b200ac8c7c3b925",
            "0x000000000000000000000000081691e61060b24d3e828fce6a451706691f2820",
            "0x000000000000000000000000ac77b823b58873572937a01b3e0cb9c417cf637e"
          ],
          "data": "0x0000000000000000000000000000000000000000000000000000000005f5e100",
          "blockHash": "0xd89542c6a7a16f317fdde7a6915a05e82583dfa55cd953f0d5d61a6e423e621b",
          "blockNumber": "0x356d67",
          "blockTimestamp": "0x6754f1ca",
          "transactionHash": "0x1dd9de7367fe7ac25b6ce06b21b75a2aa31b4649055de4e6f16fa23d8e13b6bc",
          "transactionIndex": "0x4",
          "logIndex": "0x4",
          "removed": false
        }
      ],
      "logsBloom": "0x02000000000000000000000000000000000002000000000000000000000000000040000000000000000000000000000000000000000000000000000000200000200000000000000000000000000000000000000000000000000000000000000000000000000000000000000000000000000000000000000000000000000000000000080000000000000000000000000000000000000000000000000000000000020000000000000000000000000000000000000000000000000000800000000000000000000000000000000000000000000000000000008000000000000100000010000000000008000000000000000000000000000000000000000000000000",
      "type": "0x2",
      "transactionHash": "0x1dd9de7367fe7ac25b6ce06b21b75a2aa31b4649055de4e6f16fa23d8e13b6bc",
      "transactionIndex": "0x4",
      "blockHash": "0xd89542c6a7a16f317fdde7a6915a05e82583dfa55cd953f0d5d61a6e423e621b",
      "blockNumber": "0x356d67",
      "gasUsed": "0xb423",
      "effectiveGasPrice": "0x989681",
      "from": "0x081691e61060b24d3e828fce6a451706691f2820",
      "to": "0xbe5d45a7c0709bab9e51337c991dabcb97c6d1ef",
      "contractAddress": null,
      "l1DiffSize": "0xff",
      "l1FeeRate": "0x9502f900"
    },
    {
      "status": "0x1",
      "cumulativeGasUsed": "0x683ed",
      "logs": [
        {
          "address": "0xbe5d45a7c0709bab9e51337c991dabcb97c6d1ef",
          "topics": [
            "0xddf252ad1be2c89b69c2b068fc378daa952ba7f163c4a11628f55a4df523b3ef",
            "0x000000000000000000000000081691e61060b24d3e828fce6a451706691f2820",
            "0x000000000000000000000000ac77b823b58873572937a01b3e0cb9c417cf637e"
          ],
          "data": "0x0000000000000000000000000000000000000000000000000000000005f5e100",
          "blockHash": "0xd89542c6a7a16f317fdde7a6915a05e82583dfa55cd953f0d5d61a6e423e621b",
          "blockNumber": "0x356d67",
          "blockTimestamp": "0x6754f1ca",
          "transactionHash": "0xafd0dfcc6f4b7311a7f30f9729fb0188f2edfb4afae1fff30310cb06833951b4",
          "transactionIndex": "0x5",
          "logIndex": "0x5",
          "removed": false
        },
        {
          "address": "0xac77b823b58873572937a01b3e0cb9c417cf637e",
          "topics": [
            "0x0b05f0d1cd0819f155b8a61f60baf7767c1ee49d04aeaab701df236140eb93f9",
            "0x000000000000000000000000081691e61060b24d3e828fce6a451706691f2820"
          ],
          "data": "0x0000000000000000000000000000000000000000000000000000000005f5e100000000000000000000000000000000000000000000000000000000006754f1ca",
          "blockHash": "0xd89542c6a7a16f317fdde7a6915a05e82583dfa55cd953f0d5d61a6e423e621b",
          "blockNumber": "0x356d67",
          "blockTimestamp": "0x6754f1ca",
          "transactionHash": "0xafd0dfcc6f4b7311a7f30f9729fb0188f2edfb4afae1fff30310cb06833951b4",
          "transactionIndex": "0x5",
          "logIndex": "0x6",
          "removed": false
        }
      ],
      "logsBloom": "0x02000000000000000000000000000000000002000000000000000000000000000040000000000000000000000000000000000000000000000000000000000000200000000000000000000008000000000000000000000000000000000000000000000000000000000000000000000000000000000000000000000010000000000400080000000000000000000000000000000000000000000000000000000000000000000000000000000000000000000000000000020000000000800020000000000002000001000000000000000000000000000200008000000000000100000000200000000008000000000000000000000000000000000000000000000000",
      "type": "0x2",
      "transactionHash": "0xafd0dfcc6f4b7311a7f30f9729fb0188f2edfb4afae1fff30310cb06833951b4",
      "transactionIndex": "0x5",
      "blockHash": "0xd89542c6a7a16f317fdde7a6915a05e82583dfa55cd953f0d5d61a6e423e621b",
      "blockNumber": "0x356d67",
      "gasUsed": "0x1e9be",
      "effectiveGasPrice": "0x989681",
      "from": "0x081691e61060b24d3e828fce6a451706691f2820",
      "to": "0xac77b823b58873572937a01b3e0cb9c417cf637e",
      "contractAddress": null,
      "l1DiffSize": "0x402",
      "l1FeeRate": "0x9502f900"
    }
  ],
  "libraries": [],
  "pending": [],
  "returns": {},
  "timestamp": 1733620172,
  "chain": 5115,
  "commit": "accdc3b"
}