{
  "transactions": [
    {
      "hash": "0x2917f009b58895f1f37e34dc17c738e0c05ffeb7f3db0ffafc214d43d9a0966b",
      "transactionType": "CALL",
      "contractName": null,
      "contractAddress": "0x9779cfa3f75c99ca222e9dcb283d1372491e3b3c",
      "function": "approve(address,uint256)",
      "arguments": [
        "0xa18eC0d01294f4da03216DEdbf1c5D4830e290B1",
        "500000000000000000000"
      ],
      "transaction": {
        "from": "0x081691e61060b24d3e828fce6a451706691f2820",
        "to": "0x9779cfa3f75c99ca222e9dcb283d1372491e3b3c",
        "gas": "0x107b8",
        "value": "0x0",
        "input": "0x095ea7b3000000000000000000000000a18ec0d01294f4da03216dedbf1c5d4830e290b100000000000000000000000000000000000000000000001b1ae4d6e2ef500000",
        "nonce": "0x3e",
        "chainId": "0x14a34"
      },
      "additionalContracts": [],
      "isFixedGasLimit": false
    },
    {
      "hash": "0xf1034a996e8b05d22a5f5a89ca230b91c70cd2abc560833e595231e90c0fbe57",
      "transactionType": "CALL",
      "contractName": null,
      "contractAddress": "0x0b61f09729b4840bbb03b1cd234a882322addd42",
      "function": "approve(address,uint256)",
      "arguments": [
        "0xa18eC0d01294f4da03216DEdbf1c5D4830e290B1",
        "500000000000000000000"
      ],
      "transaction": {
        "from": "0x081691e61060b24d3e828fce6a451706691f2820",
        "to": "0x0b61f09729b4840bbb03b1cd234a882322addd42",
        "gas": "0x107b8",
        "value": "0x0",
        "input": "0x095ea7b3000000000000000000000000a18ec0d01294f4da03216dedbf1c5d4830e290b100000000000000000000000000000000000000000000001b1ae4d6e2ef500000",
        "nonce": "0x3f",
        "chainId": "0x14a34"
      },
      "additionalContracts": [],
      "isFixedGasLimit": false
    }
  ],
  "receipts": [
    {
      "status": "0x1",
      "cumulativeGasUsed": "0x1579a1",
      "logs": [
        {
          "address": "0x9779cfa3f75c99ca222e9dcb283d1372491e3b3c",
          "topics": [
            "0x8c5be1e5ebec7d5bd14f71427d1e84f3dd0314c0f7b2291e5b200ac8c7c3b925",
            "0x000000000000000000000000081691e61060b24d3e828fce6a451706691f2820",
            "0x000000000000000000000000a18ec0d01294f4da03216dedbf1c5d4830e290b1"
          ],
          "data": "0x00000000000000000000000000000000000000000000001b1ae4d6e2ef500000",
          "blockHash": "0xe5620cfa52eaefeafc98c041ae793ba0e773230cef6edb072524c7887efd7c17",
          "blockNumber": "0x1209190",
          "blockTimestamp": "0x67548200",
          "transactionHash": "0x2917f009b58895f1f37e34dc17c738e0c05ffeb7f3db0ffafc214d43d9a0966b",
          "transactionIndex": "0xa",
          "logIndex": "0xf",
          "removed": false
        }
      ],
      "logsBloom": "0x00000000000001000000000000000000000002000000000000000000000000000000000000000000000000000000000000000000000000000000000000200000000000000000100000020000000080000000000000000000000000000000000000000000000000000001000000000000000000000000000000000000000000000000000000000000000000000000000000000000000000000000000000000000020000000000000000000000000000000000000000000000000000800000000000000000000000000000000000000000000000000000000080000000000000000010000000000008000000000000000000000000000000000000000000000000",
      "type": "0x2",
      "transactionHash": "0x2917f009b58895f1f37e34dc17c738e0c05ffeb7f3db0ffafc214d43d9a0966b",
      "transactionIndex": "0xa",
      "blockHash": "0xe5620cfa52eaefeafc98c041ae793ba0e773230cef6edb072524c7887efd7c17",
      "blockNumber": "0x1209190",
      "gasUsed": "0xb453",
      "effectiveGasPrice": "0x3dc",
      "from": "0x081691e61060b24d3e828fce6a451706691f2820",
      "to": "0x9779cfa3f75c99ca222e9dcb283d1372491e3b3c",
      "contractAddress": null,
      "l1BaseFeeScalar": "0x44d",
      "l1BlobBaseFee": "0x1",
      "l1BlobBaseFeeScalar": "0xa118b",
      "l1Fee": "0x26c77afe",
      "l1FeeScalar": "0.001101",
      "l1GasPrice": "0xeb98f1b",
      "l1GasUsed": "0x958"
    },
    {
      "status": "0x1",
      "cumulativeGasUsed": "0x162df4",
      "logs": [
        {
          "address": "0x0b61f09729b4840bbb03b1cd234a882322addd42",
          "topics": [
            "0x8c5be1e5ebec7d5bd14f71427d1e84f3dd0314c0f7b2291e5b200ac8c7c3b925",
            "0x000000000000000000000000081691e61060b24d3e828fce6a451706691f2820",
            "0x000000000000000000000000a18ec0d01294f4da03216dedbf1c5d4830e290b1"
          ],
          "data": "0x00000000000000000000000000000000000000000000001b1ae4d6e2ef500000",
          "blockHash": "0xe5620cfa52eaefeafc98c041ae793ba0e773230cef6edb072524c7887efd7c17",
          "blockNumber": "0x1209190",
          "blockTimestamp": "0x67548200",
          "transactionHash": "0xf1034a996e8b05d22a5f5a89ca230b91c70cd2abc560833e595231e90c0fbe57",
          "transactionIndex": "0xb",
          "logIndex": "0x10",
          "removed": false
        }
      ],
      "logsBloom": "0x00000000000000000000000000000000000002000000000000000000000000000000000000000000000000000000000000000000000000000000000000200000000000000000100000020000000080000000000000000000000000000000000000000000000000000000000000000000000000000000000000000020000000000000000000000000000000000000001000000000000000000000000000000000020000000008000000000000000000000000000000000000000000800000000000000000000000000000000000000000000000000000000000000000000000000010000000000008000000000000000000000000000000000000000000000000",
      "type": "0x2",
      "transactionHash": "0xf1034a996e8b05d22a5f5a89ca230b91c70cd2abc560833e595231e90c0fbe57",
      "transactionIndex": "0xb",
      "blockHash": "0xe5620cfa52eaefeafc98c041ae793ba0e773230cef6edb072524c7887efd7c17",
      "blockNumber": "0x1209190",
      "gasUsed": "0xb453",
      "effectiveGasPrice": "0x3dc",
      "from": "0x081691e61060b24d3e828fce6a451706691f2820",
      "to": "0x0b61f09729b4840bbb03b1cd234a882322addd42",
      "contractAddress": null,
      "l1BaseFeeScalar": "0x44d",
      "l1BlobBaseFee": "0x1",
      "l1BlobBaseFeeScalar": "0xa118b",
      "l1Fee": "0x26f948aa",
      "l1FeeScalar": "0.001101",
      "l1GasPrice": "0xeb98f1b",
      "l1GasUsed": "0x964"
    }
  ],
  "libraries": [],
  "pending": [],
  "returns": {},
  "timestamp": 1733591553,
  "chain": 84532,
  "commit": "accdc3b"
}